{
  "contractName": "Evote",
  "abi": [
    {
      "anonymous": false,
      "inputs": [
        {
          "indexed": false,
          "internalType": "string",
          "name": "accountAddress",
          "type": "string"
        },
        {
          "indexed": false,
          "internalType": "string",
          "name": "email",
          "type": "string"
        }
      ],
      "name": "aadharCreated",
      "type": "event"
    },
    {
      "anonymous": false,
      "inputs": [
        {
          "indexed": false,
          "internalType": "uint256",
          "name": "id",
          "type": "uint256"
        },
        {
          "indexed": false,
          "internalType": "string",
          "name": "name",
          "type": "string"
        },
        {
          "indexed": false,
          "internalType": "string",
          "name": "age",
          "type": "string"
        },
        {
          "indexed": false,
          "internalType": "string",
          "name": "party",
          "type": "string"
        },
        {
          "indexed": false,
          "internalType": "string",
          "name": "qualification",
          "type": "string"
        },
        {
          "indexed": false,
          "internalType": "uint256",
          "name": "voteCount",
          "type": "uint256"
        }
      ],
      "name": "candidatesCreated",
      "type": "event"
    },
    {
      "anonymous": false,
      "inputs": [
        {
          "indexed": false,
          "internalType": "string",
          "name": "accountAddress",
          "type": "string"
        },
        {
          "indexed": false,
          "internalType": "string",
          "name": "aadhar",
          "type": "string"
        }
      ],
      "name": "emailCreated",
      "type": "event"
    },
    {
      "anonymous": false,
      "inputs": [
        {
          "indexed": false,
          "internalType": "string",
          "name": "username",
          "type": "string"
        },
        {
          "indexed": false,
          "internalType": "string",
          "name": "email",
          "type": "string"
        },
        {
          "indexed": false,
          "internalType": "string",
          "name": "password",
          "type": "string"
        },
        {
          "indexed": false,
          "internalType": "bool",
          "name": "isVoted",
          "type": "bool"
        },
        {
          "indexed": false,
          "internalType": "string",
          "name": "aadhar",
          "type": "string"
        }
      ],
      "name": "userCreated",
      "type": "event"
    },
    {
      "inputs": [
        {
          "internalType": "string",
          "name": "",
          "type": "string"
        }
      ],
      "name": "aadharList",
      "outputs": [
        {
          "internalType": "string",
          "name": "accountAddress",
          "type": "string"
        },
        {
          "internalType": "string",
          "name": "email",
          "type": "string"
        }
      ],
      "stateMutability": "view",
      "type": "function",
      "constant": true
    },
    {
      "inputs": [],
      "name": "candidatesCount",
      "outputs": [
        {
          "internalType": "uint256",
          "name": "",
          "type": "uint256"
        }
      ],
      "stateMutability": "view",
      "type": "function",
      "constant": true
    },
    {
      "inputs": [
        {
          "internalType": "uint256",
          "name": "",
          "type": "uint256"
        }
      ],
      "name": "candidatesList",
      "outputs": [
        {
          "internalType": "uint256",
          "name": "id",
          "type": "uint256"
        },
        {
          "internalType": "string",
          "name": "name",
          "type": "string"
        },
        {
          "internalType": "string",
          "name": "age",
          "type": "string"
        },
        {
          "internalType": "string",
          "name": "party",
          "type": "string"
        },
        {
          "internalType": "string",
          "name": "qualification",
          "type": "string"
        },
        {
          "internalType": "uint256",
          "name": "voteCount",
          "type": "uint256"
        }
      ],
      "stateMutability": "view",
      "type": "function",
      "constant": true
    },
    {
      "inputs": [],
      "name": "changeState",
      "outputs": [
        {
          "internalType": "string",
          "name": "",
          "type": "string"
        }
      ],
      "stateMutability": "view",
      "type": "function",
      "constant": true
    },
    {
      "inputs": [
        {
          "internalType": "string",
          "name": "",
          "type": "string"
        }
      ],
      "name": "emailList",
      "outputs": [
        {
          "internalType": "string",
          "name": "accountAddress",
          "type": "string"
        },
        {
          "internalType": "string",
          "name": "aadhar",
          "type": "string"
        }
      ],
      "stateMutability": "view",
      "type": "function",
      "constant": true
    },
    {
      "inputs": [],
      "name": "userCount",
      "outputs": [
        {
          "internalType": "uint256",
          "name": "",
          "type": "uint256"
        }
      ],
      "stateMutability": "view",
      "type": "function",
      "constant": true
    },
    {
      "inputs": [
        {
          "internalType": "string",
          "name": "",
          "type": "string"
        }
      ],
      "name": "usersList",
      "outputs": [
        {
          "internalType": "string",
          "name": "username",
          "type": "string"
        },
        {
          "internalType": "string",
          "name": "email",
          "type": "string"
        },
        {
          "internalType": "string",
          "name": "password",
          "type": "string"
        },
        {
          "internalType": "bool",
          "name": "isVoted",
          "type": "bool"
        },
        {
          "internalType": "string",
          "name": "aadhar",
          "type": "string"
        }
      ],
      "stateMutability": "view",
      "type": "function",
      "constant": true
    },
    {
      "inputs": [
        {
          "internalType": "string",
          "name": "_username",
          "type": "string"
        },
        {
          "internalType": "string",
          "name": "_email",
          "type": "string"
        },
        {
          "internalType": "string",
          "name": "_password",
          "type": "string"
        },
        {
          "internalType": "string",
          "name": "_aadhar",
          "type": "string"
        }
      ],
      "name": "createUser",
      "outputs": [],
      "stateMutability": "nonpayable",
      "type": "function"
    },
    {
      "inputs": [
        {
          "internalType": "string",
          "name": "_name",
          "type": "string"
        },
        {
          "internalType": "string",
          "name": "_age",
          "type": "string"
        },
        {
          "internalType": "string",
          "name": "_party",
          "type": "string"
        },
        {
          "internalType": "string",
          "name": "_qualification",
          "type": "string"
        }
      ],
      "name": "createCandidate",
      "outputs": [],
      "stateMutability": "nonpayable",
      "type": "function"
    },
    {
      "inputs": [
        {
          "internalType": "uint256",
          "name": "id",
          "type": "uint256"
        },
        {
          "internalType": "string",
          "name": "_email",
          "type": "string"
        }
      ],
      "name": "addVote",
      "outputs": [],
      "stateMutability": "nonpayable",
      "type": "function"
    },
    {
      "inputs": [
        {
          "internalType": "string",
          "name": "_name",
          "type": "string"
        }
      ],
      "name": "changeStates",
      "outputs": [],
      "stateMutability": "nonpayable",
      "type": "function"
    },
    {
      "inputs": [
        {
          "internalType": "string",
          "name": "_email",
          "type": "string"
        }
      ],
      "name": "appendIsVote",
      "outputs": [],
      "stateMutability": "nonpayable",
      "type": "function"
    },
    {
      "inputs": [
        {
          "internalType": "string",
          "name": "_aadharNum",
          "type": "string"
        },
        {
          "internalType": "string",
          "name": "_accountAddress",
          "type": "string"
        },
        {
          "internalType": "string",
          "name": "_email",
          "type": "string"
        }
      ],
      "name": "createAdharEmail",
      "outputs": [],
      "stateMutability": "nonpayable",
      "type": "function"
    }
  ],
  "bytecode": "0x608060405260008055600060015560405180602001604052806000815250600290805190602001906200003492919062000049565b503480156200004257600080fd5b506200015e565b828054620000579062000128565b90600052602060002090601f0160209004810192826200007b5760008555620000c7565b82601f106200009657805160ff1916838001178555620000c7565b82800160010185558215620000c7579182015b82811115620000c6578251825591602001919060010190620000a9565b5b509050620000d69190620000da565b5090565b5b80821115620000f5576000816000905550600101620000db565b5090565b7f4e487b7100000000000000000000000000000000000000000000000000000000600052602260045260246000fd5b600060028204905060018216806200014157607f821691505b60208210811415620001585762000157620000f9565b5b50919050565b61176f806200016e6000396000f3fe608060405234801561001057600080fd5b50600436106100cf5760003560e01c80634cbce6ac1161008c5780638412e667116100665780638412e667146102165780638fb7ec6514610234578063df2d5ec714610250578063f9edfa0d14610285576100cf565b80634cbce6ac146101aa5780636f7fcddb146101de57806378c4c488146101fa576100cf565b806301a8445b146100d457806307973ccf146101055780630f9181e1146101235780630fcaac1b146101545780632d35a8a2146101705780633541a13d1461018e575b600080fd5b6100ee60048036038101906100e991906110b3565b6102a1565b6040516100fc929190611184565b60405180910390f35b61010d6103eb565b60405161011a91906111d4565b60405180910390f35b61013d600480360381019061013891906110b3565b6103f1565b60405161014b929190611184565b60405180910390f35b61016e6004803603810190610169919061121b565b61053b565b005b6101786105a5565b60405161018591906111d4565b60405180910390f35b6101a860048036038101906101a39190611277565b6105ab565b005b6101c460048036038101906101bf91906110b3565b61068f565b6040516101d5959493929190611339565b60405180910390f35b6101f860048036038101906101f391906113a8565b610908565b005b610214600480360381019061020f91906110b3565b610a45565b005b61021e610a82565b60405161022b919061147f565b60405180910390f35b61024e600480360381019061024991906113a8565b610b10565b005b61026a600480360381019061026591906114a1565b610c40565b60405161027c969594939291906114ce565b60405180910390f35b61029f600480360381019061029a91906110b3565b610e9c565b005b6005818051602081018201805184825260208301602085012081835280955050505050506000915090508060000180546102da9061157a565b80601f01602080910402602001604051908101604052809291908181526020018280546103069061157a565b80156103535780601f1061032857610100808354040283529160200191610353565b820191906000526020600020905b81548152906001019060200180831161033657829003601f168201915b5050505050908060010180546103689061157a565b80601f01602080910402602001604051908101604052809291908181526020018280546103949061157a565b80156103e15780601f106103b6576101008083540402835291602001916103e1565b820191906000526020600020905b8154815290600101906020018083116103c457829003601f168201915b5050505050905082565b60015481565b60048180516020810182018051848252602083016020850120818352809550505050505060009150905080600001805461042a9061157a565b80601f01602080910402602001604051908101604052809291908181526020018280546104569061157a565b80156104a35780601f10610478576101008083540402835291602001916104a3565b820191906000526020600020905b81548152906001019060200180831161048657829003601f168201915b5050505050908060010180546104b89061157a565b80601f01602080910402602001604051908101604052809291908181526020018280546104e49061157a565b80156105315780601f1061050657610100808354040283529160200191610531565b820191906000526020600020905b81548152906001019060200180831161051457829003601f168201915b5050505050905082565b600360008381526020019081526020016000206005016000815480929190610562906115db565b919050555060016006826040516105799190611660565b908152602001604051809103902060030160006101000a81548160ff0219169083151502179055505050565b60005481565b6040518060400160405280838152602001828152506005846040516105d09190611660565b908152602001604051809103902060008201518160000190805190602001906105fa929190610eb6565b506020820151816001019080519060200190610617929190610eb6565b509050508260068260405161062c9190611660565b90815260200160405180910390206004019080519060200190610650929190610eb6565b507f67a61a7d93b3f5c541318aa6f015f8879eb4975e7a1c7534d29451d68d7468d88282604051610682929190611184565b60405180910390a1505050565b6006818051602081018201805184825260208301602085012081835280955050505050506000915090508060000180546106c89061157a565b80601f01602080910402602001604051908101604052809291908181526020018280546106f49061157a565b80156107415780601f1061071657610100808354040283529160200191610741565b820191906000526020600020905b81548152906001019060200180831161072457829003601f168201915b5050505050908060010180546107569061157a565b80601f01602080910402602001604051908101604052809291908181526020018280546107829061157a565b80156107cf5780601f106107a4576101008083540402835291602001916107cf565b820191906000526020600020905b8154815290600101906020018083116107b257829003601f168201915b5050505050908060020180546107e49061157a565b80601f01602080910402602001604051908101604052809291908181526020018280546108109061157a565b801561085d5780601f106108325761010080835404028352916020019161085d565b820191906000526020600020905b81548152906001019060200180831161084057829003601f168201915b5050505050908060030160009054906101000a900460ff16908060040180546108859061157a565b80601f01602080910402602001604051908101604052809291908181526020018280546108b19061157a565b80156108fe5780601f106108d3576101008083540402835291602001916108fe565b820191906000526020600020905b8154815290600101906020018083116108e157829003601f168201915b5050505050905085565b6001600081548092919061091b906115db565b91905055506040518060a001604052808581526020018481526020018381526020016000151581526020018281525060068460405161095a9190611660565b90815260200160405180910390206000820151816000019080519060200190610984929190610eb6565b5060208201518160010190805190602001906109a1929190610eb6565b5060408201518160020190805190602001906109be929190610eb6565b5060608201518160030160006101000a81548160ff02191690831515021790555060808201518160040190805190602001906109fb929190610eb6565b509050507f5052cedc2aa0ebaa8524354a1355c5e334e34e70f11b9a1a3add36347dd63a6b848484600085604051610a37959493929190611339565b60405180910390a150505050565b6001600682604051610a579190611660565b908152602001604051809103902060030160006101000a81548160ff02191690831515021790555050565b60028054610a8f9061157a565b80601f0160208091040260200160405190810160405280929190818152602001828054610abb9061157a565b8015610b085780601f10610add57610100808354040283529160200191610b08565b820191906000526020600020905b815481529060010190602001808311610aeb57829003601f168201915b505050505081565b600080815480929190610b22906115db565b91905055506040518060c00160405280600054815260200185815260200184815260200183815260200182815260200160008152506003600080548152602001908152602001600020600082015181600001556020820151816001019080519060200190610b91929190610eb6565b506040820151816002019080519060200190610bae929190610eb6565b506060820151816003019080519060200190610bcb929190610eb6565b506080820151816004019080519060200190610be8929190610eb6565b5060a082015181600501559050507f4ef8a94ac0a5bc18bb327ca4c6fc41a39510862b179a676672623d241a0d2e20600054858585856000604051610c32969594939291906116bc565b60405180910390a150505050565b6003602052806000526040600020600091509050806000015490806001018054610c699061157a565b80601f0160208091040260200160405190810160405280929190818152602001828054610c959061157a565b8015610ce25780601f10610cb757610100808354040283529160200191610ce2565b820191906000526020600020905b815481529060010190602001808311610cc557829003601f168201915b505050505090806002018054610cf79061157a565b80601f0160208091040260200160405190810160405280929190818152602001828054610d239061157a565b8015610d705780601f10610d4557610100808354040283529160200191610d70565b820191906000526020600020905b815481529060010190602001808311610d5357829003601f168201915b505050505090806003018054610d859061157a565b80601f0160208091040260200160405190810160405280929190818152602001828054610db19061157a565b8015610dfe5780601f10610dd357610100808354040283529160200191610dfe565b820191906000526020600020905b815481529060010190602001808311610de157829003601f168201915b505050505090806004018054610e139061157a565b80601f0160208091040260200160405190810160405280929190818152602001828054610e3f9061157a565b8015610e8c5780601f10610e6157610100808354040283529160200191610e8c565b820191906000526020600020905b815481529060010190602001808311610e6f57829003601f168201915b5050505050908060050154905086565b8060029080519060200190610eb2929190610eb6565b5050565b828054610ec29061157a565b90600052602060002090601f016020900481019282610ee45760008555610f2b565b82601f10610efd57805160ff1916838001178555610f2b565b82800160010185558215610f2b579182015b82811115610f2a578251825591602001919060010190610f0f565b5b509050610f389190610f3c565b5090565b5b80821115610f55576000816000905550600101610f3d565b5090565b6000604051905090565b600080fd5b600080fd5b600080fd5b600080fd5b6000601f19601f8301169050919050565b7f4e487b7100000000000000000000000000000000000000000000000000000000600052604160045260246000fd5b610fc082610f77565b810181811067ffffffffffffffff82111715610fdf57610fde610f88565b5b80604052505050565b6000610ff2610f59565b9050610ffe8282610fb7565b919050565b600067ffffffffffffffff82111561101e5761101d610f88565b5b61102782610f77565b9050602081019050919050565b82818337600083830152505050565b600061105661105184611003565b610fe8565b90508281526020810184848401111561107257611071610f72565b5b61107d848285611034565b509392505050565b600082601f83011261109a57611099610f6d565b5b81356110aa848260208601611043565b91505092915050565b6000602082840312156110c9576110c8610f63565b5b600082013567ffffffffffffffff8111156110e7576110e6610f68565b5b6110f384828501611085565b91505092915050565b600081519050919050565b600082825260208201905092915050565b60005b8381101561113657808201518184015260208101905061111b565b83811115611145576000848401525b50505050565b6000611156826110fc565b6111608185611107565b9350611170818560208601611118565b61117981610f77565b840191505092915050565b6000604082019050818103600083015261119e818561114b565b905081810360208301526111b2818461114b565b90509392505050565b6000819050919050565b6111ce816111bb565b82525050565b60006020820190506111e960008301846111c5565b92915050565b6111f8816111bb565b811461120357600080fd5b50565b600081359050611215816111ef565b92915050565b6000806040838503121561123257611231610f63565b5b600061124085828601611206565b925050602083013567ffffffffffffffff81111561126157611260610f68565b5b61126d85828601611085565b9150509250929050565b6000806000606084860312156112905761128f610f63565b5b600084013567ffffffffffffffff8111156112ae576112ad610f68565b5b6112ba86828701611085565b935050602084013567ffffffffffffffff8111156112db576112da610f68565b5b6112e786828701611085565b925050604084013567ffffffffffffffff81111561130857611307610f68565b5b61131486828701611085565b9150509250925092565b60008115159050919050565b6113338161131e565b82525050565b600060a0820190508181036000830152611353818861114b565b90508181036020830152611367818761114b565b9050818103604083015261137b818661114b565b905061138a606083018561132a565b818103608083015261139c818461114b565b90509695505050505050565b600080600080608085870312156113c2576113c1610f63565b5b600085013567ffffffffffffffff8111156113e0576113df610f68565b5b6113ec87828801611085565b945050602085013567ffffffffffffffff81111561140d5761140c610f68565b5b61141987828801611085565b935050604085013567ffffffffffffffff81111561143a57611439610f68565b5b61144687828801611085565b925050606085013567ffffffffffffffff81111561146757611466610f68565b5b61147387828801611085565b91505092959194509250565b60006020820190508181036000830152611499818461114b565b905092915050565b6000602082840312156114b7576114b6610f63565b5b60006114c584828501611206565b91505092915050565b600060c0820190506114e360008301896111c5565b81810360208301526114f5818861114b565b90508181036040830152611509818761114b565b9050818103606083015261151d818661114b565b90508181036080830152611531818561114b565b905061154060a08301846111c5565b979650505050505050565b7f4e487b7100000000000000000000000000000000000000000000000000000000600052602260045260246000fd5b6000600282049050600182168061159257607f821691505b602082108114156115a6576115a561154b565b5b50919050565b7f4e487b7100000000000000000000000000000000000000000000000000000000600052601160045260246000fd5b60006115e6826111bb565b91507fffffffffffffffffffffffffffffffffffffffffffffffffffffffffffffffff821415611619576116186115ac565b5b600182019050919050565b600081905092915050565b600061163a826110fc565b6116448185611624565b9350611654818560208601611118565b80840191505092915050565b600061166c828461162f565b915081905092915050565b6000819050919050565b6000819050919050565b60006116a66116a161169c84611677565b611681565b6111bb565b9050919050565b6116b68161168b565b82525050565b600060c0820190506116d160008301896111c5565b81810360208301526116e3818861114b565b905081810360408301526116f7818761114b565b9050818103606083015261170b818661114b565b9050818103608083015261171f818561114b565b905061172e60a08301846116ad565b97965050505050505056fea2646970667358221220b9507f4825409a3cdc254e4e6858cfd2337717f21739726f78fe776679538ef264736f6c634300080c0033",
  "immutableReferences": {},
  "source": "// SPDX-License-Identifier: MIT\npragma solidity >=0.4.22 <0.9.0;\ncontract Evote{\n    uint public candidatesCount=0;\n    uint public userCount=0;\n    string public changeState=\"\";\n mapping(uint => candidates) public candidatesList;\n mapping(string => email) public emailList;\n mapping(string => aadhar) public aadharList;\n mapping(string => user) public usersList;\n\n struct user{\n      string username;\n      string email;\n      string password;\n      bool isVoted;\n      string aadhar;\n      \n  }\n struct email{\n      string accountAddress;\n      string aadhar;\n  }\n struct aadhar{\n      string accountAddress;\n      string email;\n  }\n \n  struct candidates{\n      uint id;\n      string name;\n      string age;\n      string party;\n      string qualification;\n      uint voteCount;\n  }\n\n  // events\n\n   event userCreated(\n      string username,\n      string email,\n      string password,\n      bool isVoted,\n      string aadhar\n      \n    );\n\n   event emailCreated(\n      string accountAddress,\n      string aadhar\n    );\n   event aadharCreated(\n      string accountAddress,\n      string email\n    );\n   event candidatesCreated(\n      uint id,\n      string name,\n      string age,\n      string party,\n      string qualification,\n      uint voteCount\n    );\n\n   \n    function createUser(string memory _username,string memory _email,string memory _password,string memory _aadhar ) public {\n      \n        userCount++;\n\n        usersList[_email] = user(_username,_email,_password,false,_aadhar);\n      \n        emit userCreated(_username,_email,_password,false,_aadhar);\n    }\n\n  function createCandidate(string memory _name,string memory _age,string memory _party,string memory _qualification) public {\n      \n        candidatesCount++;\n       \n        candidatesList[candidatesCount] = candidates(candidatesCount,_name,_age,_party,_qualification,0);\n      \n        emit candidatesCreated(candidatesCount,_name,_age,_party,_qualification,0);\n    }\n  function addVote(uint id,string memory _email) public {\n        \n        candidatesList[id].voteCount++;\n        usersList[_email].isVoted=true;\n      \n    }\n  function changeStates(string memory _name) public {\n\n        changeState=_name;\n    }\n\n    function appendIsVote(string memory _email) public {\n\n         usersList[_email].isVoted=true;\n    }\n\n  function createAdharEmail(string memory _aadharNum, string memory _accountAddress,string memory _email) public {\n        aadharList[_aadharNum] = aadhar(_accountAddress,_email);\n\n        usersList[_email].aadhar=_aadharNum;\n\n        emit aadharCreated(_accountAddress, _email);\n  }\n  \n\n}",
  "sourcePath": "C:\\Users\\ASUS\\Downloads\\e-voting-block-main\\e-voting-block-main\\src\\contracts\\Evote.sol",
  "compiler": {
    "name": "solc",
    "version": "0.8.12+commit.f00d7308.Emscripten.clang"
  },
  "schemaVersion": "3.4.16",
  "updatedAt": "2024-01-10T09:25:05.394Z",
  "networkType": "ethereum",
  "devdoc": {
    "kind": "dev",
    "methods": {},
    "version": 1
  },
  "userdoc": {
    "kind": "user",
    "methods": {},
    "version": 1
  }
}